:020000040800F2
:10000000D8050020E9920008D1910008D39100089A
:10001000D5910008D7910008D99100080000000090
:10002000000000000000000000000000DB9100085C
:10003000DD91000800000000DF910008E191000858
:100040000193000805930008099300080D93000828
:100050001193000815930008199300081D930008D8
:100060002193000825930008299300082D93000888
:100070003193000835930008399300083D93000838
:100080004193000845930008499300084D930008E8
:100090005193000855930008599300085D93000898
:1000A0006193000865930008699300086D93000848
:1000B0007193000875930008799300087D930008F8
:1000C000819300088593000889930008E591000852
:1000D0008D93000891930008959300089993000868
:1000E0009D930008A1930008A5930008A993000818
:1000F000AD930008B1930008B5930008B9930008C8
:10010000BD930008C1930008C5930008C993000877
:10011000CD930008D1930008D5930008D993000827
:10012000DD930008E1930008E5930008EB910008D7
:10013000E9930008ED930008F1930008F593000897
:10014000F9930008FD930008019400080594000845
:10015000099400080D9400081194000815940008F3
:10016000199400081D9400082194000825940008A3
:10017000299400082D940008319400080000000024
:100180003594000839940008D32A2305160000008E
:10019000000000000000000000000000000000005F
:1001A000000000000000000000000000000000004F
:1001B000000000000000000000000000000000003F
:1001C000000000000000000000000000000000002F
:1001D000000000000000000000000000000000001F
:1001E000000000000000000000000000000000000F
:1001F00000000000000000000000000000000000FF
:1002000000000000000000000000000000000000EE
:1002100000000000000000000000000000000000DE
:1002200000000000000000000000000000000000CE
:1002300000000000000000000000000000000000BE
:1002400000000000000000000000000000000000AE
:100250000000000000000000000000000000000698
:1002600000000000000000000C0000FF7F1E008066
:10027000FFFF1E0080FFFF1E0000FF7F0C0000003C
:10028000000000000000000000000000000000006E
:10029000000000000000000000000000000000005E
:1002A000000000000000000000000000000000004E
:1002B000000000000000000000000000000000003E
:1002C000000000000000000000000000000000002E
:1002D000000000000000000000000000000000001E
:1002E000000000000000000000000000000000000E
:1002F00000000000000000000000000000000000FE
:1003000000000000000000000000000000000000ED
:1003100000000000000000000000000000000000DD
:1003200000000000000000000000000000000000CD
:1003300000000B00000000000078000000007F00BB
:100340000000807F000000803F000000800F000060
:10035000000070000000007F000000807F000000AF
:10036000803F000000800F0000000000000000003F
:10037000000000000000000000000000000000007D
:10038000000000000000000000000000000000006D
:10039000000000000000000000000000000000005D
:1003A000000000000000000000000000000000004D
:1003B000000000000000000000000000000000003D
:1003C000000000000000000000000000000000002D
:1003D000000000000000000000000000000000001D
:1003E000000000000000000000000000000000000D
:1003F00000000000000000000000000000000000FD
:1004000000000000001A00000000000000300000A2
:10041000000078000000C078000000E0790C0000C7
:10042000E0791F0000E0F91F0000E0FD0F0000E090
:10043000FF030000F0FF000000FC7F000000FE7BD7
:100440000C0000FF791E0000FFF91F0000EEF90FFD
:100450000000E0FD070000E0FF010000F87F000061
:1004600000FE7F000000FF7B000000FF790000001D
:10047000EE79000000E079000000E031000000E0CB
:1004800001000000C00000000000000000000000AB
:10049000000000000000000000000000000000005C
:1004A000000000000000000000000000000000004C
:1004B000000000000000000000000000000000003C
:1004C000000000000000000000000000000000002C
:1004D00000000000000000001A000000000000F80A
:1004E000010C0000FC031E0000FE071E0000FF07B9
:1004F0001E008087071E0080070F1E0080070F1E4A
:100500000080070F1E0080070F1E0080070F1E00CF
:10051000C0FFFF3F00E0FFFF7F00E0FFFF7F00C064
:10052000FFFF3F0080070F1E0080070F1E0080079F
:100530000F1E0080070F1E0000030F1E0000000F9B
:100540001E0000001F0F000000FE0F000000FE074D
:10055000000000FC07000000F8030000000000009D
:10056000000000000000000000000000000000008B
:10057000000000000000000000000000000000007B
:10058000000000000000000000000000000000006B
:10059000000000000000000000000000000000005B
:1005A0000000000000000000000000220000000029
:1005B0000000FE00000000FF01000000FF0100003D
:1005C00080FF03000080EF03080080C7031C008049
:1005D000C7031E0080C7031F0080C7831F0080C79A
:1005E000C30F0080C7E3070080EFF3030080FFF92B
:1005F000010000FFFD000000FF7F000000FE3F0043
:100600000000801F000000C0EF0F0000E0F71F0097
:1006100000F0F31F0000F8F93F0000FCF83E000076
:100620007C783C00003E783C00001F783C00800F46
:10063000783C008007783C008003783C008001789B
:100640001E000000F81F000000F01F000000F00F67
:10065000000000E0070000000000000000000000B3
:10066000000000000000000000000000000000008A
:1006700000000000000000000000000000001E005C
:10068000000000000000F003000000F80700003840
:10069000FC070000FEFC0F0000FF1C0F0000FF1F06
:1006A0001E0080CF0F1E0080870F1E008007071ED0
:1006B000008007071E0080070E1E0080070F1E0027
:1006C00080071F1E0080071F1E0080073F1E00803E
:1006D000873B1E0080877B1E0080CFF11E0000FF3D
:1006E000E11E0000FFE01F0000FEC01F00007CC0F4
:1006F0001F000000800F000000FC0F000000FE0F34
:10070000000000FE1F000000FC1F000000001C0095
:100710000000000C000000000000000000000000CD
:1007200000000000000000000000000000000000C9
:1007300000000000000000000000000000000000B9
:1007400000000000000000000000000000000000A9
:10075000000600000000000078000000007F00009C
:1007600000807F000000803F000000800F0000003C
:100770000000000000000000000000000000000079
:100780000000000000000000000000000000000069
:100790000000000000000000000000000000000059
:1007A0000000000000000000000000000000000049
:1007B0000000000000000000000000000000000039
:1007C0000000000000000000000000000000000029
:1007D0000000000000000000000000000000000019
:1007E0000000000000000000000000000000000009
:1007F00000000000000000000000000000000000F9
:1008000000000000000000000000000000000000E8
:1008100000000000000000000000000000000000D8
:100820000000000009000000000000F8FF010000C7
:10083000FCFF030000FEFF070000FFFF0F00800F1A
:10084000001F008007001E008003001C0000010044
:100850000800000000000000000000000000000090
:100860000000000000000000000000000000000088
:100870000000000000000000000000000000000078
:100880000000000000000000000000000000000068
:100890000000000000000000000000000000000058
:1008A0000000000000000000000000000000000048
:1008B0000000000000000000000000000000000038
:1008C0000000000000000000000000000000000028
:1008D0000000000000000000000000000000000018
:1008E0000000000000000000000000000000000008
:1008F00000000000000000090000000000000100EE
:1009000008008003001C008007001E00800F001FED
:100910000000FFFF0F0000FEFF070000FCFF0300C8
:1009200000F8FF01000000000000000000000000CF
:1009300000000000000000000000000000000000B7
:1009400000000000000000000000000000000000A7
:100950000000000000000000000000000000000097
:100960000000000000000000000000000000000087
:100970000000000000000000000000000000000077
:100980000000000000000000000000000000000067
:100990000000000000000000000000000000000057
:1009A0000000000000000000000000000000000047
:1009B0000000000000000000000000000000000037
:1009C0000000000000000000000012000000000015
:1009D000000000000000300C000000781E00000045
:1009E000F81F000000F00F000000E007000000C04A
:1009F00003000000F81F000000FC3F000000FC3F67
:100A0000000000F81F000000C003000000E0070025
:100A10000000F00F000000F81F000000781E00002A
:100A200000300C000000000000000000000000008A
:100A300000000000000000000000000000000000B6
:100A400000000000000000000000000000000000A6
:100A50000000000000000000000000000000000096
:100A60000000000000000000000000000000000086
:100A70000000000000000000000000000000000076
:100A80000000000000000000000000000000000066
:100A9000000000000000000000000000000E000048
:100AA00006000000000F000000000F000000000F13
:100AB000000000000F000000C03F000000E07F00C9
:100AC0000000E07F000000C03F000000000F0000B9
:100AD00000000F000000000F000000000F000000E9
:100AE0000006000000000000000000000000000000
:100AF00000000000000000000000000000000000F6
:100B000000000000000000000000000000000000E5
:100B100000000000000000000000000000000000D5
:100B200000000000000000000000000000000000C5
:100B300000000000000000000000000000000000B5
:100B400000000000000000000000000000000000A5
:100B50000000000000000000000000000000000095
:100B60000000000000000000000000000000000085
:100B7000060000000000000000F000000000FE0081
:100B8000000000FF000000007F000000000F0000D8
:100B90000000000000000000000000000000000055
:100BA0000000000000000000000000000000000045
:100BB0000000000000000000000000000000000035
:100BC0000000000000000000000000000000000025
:100BD0000000000000000000000000000000000015
:100BE0000000000000000000000000000000000005
:100BF00000000000000000000000000000000000F5
:100C000000000000000000000000000000000000E4
:100C100000000000000000000000000000000000D4
:100C200000000000000000000000000000000000C4
:100C300000000000000000000000000000000000B4
:100C4000000000100000000000000038000000005C
:100C50003C000000003C000000003C000000003CA4
:100C6000000000003C000000003C000000003C00D0
:100C70000000003C000000003C000000003C0000C0
:100C800000003C000000003C000000003C000000B0
:100C9000001C000000000000000000000000000038
:100CA0000000000000000000000000000000000044
:100CB0000000000000000000000000000000000034
:100CC0000000000000000000000000000000000024
:100CD0000000000000000000000000000000000014
:100CE0000000000000000000000000000000000004
:100CF00000000000000000000000000000000000F4
:100D000000000000000000000000000000000000E3
:100D10000000000000000600000000000000000CC1
:100D2000000000001E000000001E000000001E0069
:100D30000000000C000000000000000000000000A7
:100D400000000000000000000000000000000000A3
:100D50000000000000000000000000000000000093
:100D60000000000000000000000000000000000083
:100D70000000000000000000000000000000000073
:100D80000000000000000000000000000000000063
:100D90000000000000000000000000000000000053
:100DA0000000000000000000000000000000000043
:100DB0000000000000000000000000000000000033
:100DC0000000000000000000000000000000000023
:100DD0000000000000000000000000000000000013
:100DE00000000000000000000019000000080000E2
:100DF00000001C000000001E000000001F0000009A
:100E0000800F000000C007000000E003000000F0B9
:100E100001000000F8000000007C000000007E00DF
:100E20000000003F000000801F000000C00F000015
:100E300000C007000000E003000000F00100000017
:100E4000F8000000007C000000003E000000001FD1
:100E5000000000000F000000800700000080030079
:100E60000000000100000000000000000000000081
:100E70000000000000000000000000000000000072
:100E80000000000000000000000000000000000062
:100E90000000000000000000000000000000000052
:100EA0000000000000000000000000000000000042
:100EB0000000000000000000000000001C00000016
:100EC0000000000000000000F8FF030000FEFF0724
:100ED0000000FFFF0F0000FFFF0F00000F000F00DA
:100EE000800F001F008007001E008007001E00808A
:100EF00007001E008007001E008007001E008007FC
:100F0000001E008007001E008007001E00800700F2
:100F10001E008007001E008007001E008007001EC4
:100F2000008007001E008007001E00800F001E00CA
:100F3000000F000F0000FFFF0F0000FFFF0F000079
:100F4000FEFF070000F8FF010000000000000000A5
:100F50000000000000000000000000000000000091
:100F60000000000000000000000000000000000081
:100F70000000000000000000000000000000000071
:100F80000000000000000000000000000000000A57
:100F90000000000000000000000000000000000051
:100FA000030000008007000000800700000080FFB1
:100FB000FF0F0080FFFF1F0080FFFF1F0000FFFFEB
:100FC0000F00000000000000000000000000000012
:100FD0000000000000000000000000000000000011
:100FE0000000000000000000000000000000000001
:100FF00000000000000000000000000000000000F1
:1010000000000000000000000000000000000000E0
:1010100000000000000000000000000000000000D0
:1010200000000000000000000000000000000000C0
:1010300000000000000000000000000000000000B0
:1010400000000000000000000000000000000000A0
:101050000000000000000000000000000000000090
:1010600000001D00000000000000F80F000000FC60
:101070001F000000FE1F000000FE1F0000001E1EDB
:101080000000000F1E0000000F1E0000000F1E00D9
:1010900000000F1E0000000F1E0000000F1E0000C9
:1010A000000F1E0000000F1E0000030F1E0080072F
:1010B0000F1E0080070F1E0080070F1E0080070F05
:1010C0001E0080070F1E0080070F1E0080070F1EE6
:1010D0000080070F1E0080070F1E00808F071E0074
:1010E00000FF071E0000FF071E0000FE031E000099
:1010F000FC000C00000000000000000000000000E8
:1011000000000000000000000000000000000000DF
:1011100000000000000000000000000000000000CF
:1011200000000000000000000000000000000000BF
:1011300000000000001E0000000000000000000091
:101140000000060C0000000F1E0000000F1E000033
:10115000000F1E0000000F1E0000000F1E00000008
:101160000F1E0000000F1E0000000F1E0000000FE9
:101170001E0000000F1E0000000F1E0000000F1ECA
:101180000000000F1E0000030F1E0080070F1E004E
:1011900080070F1E0080070F1E0080070F1E0080B3
:1011A000070F1E0080070F1E0080070F1E0080071C
:1011B0000F1E00808F1F0F0000FFFF0F0000FFFFBA
:1011C0000F0000FEFF070000FCF803000000000015
:1011D000000000000000000000000000000000000F
:1011E00000000000000000000000000000000000FF
:1011F00000000000000000000000000000000000EF
:1012000000000000000000001F000000000000FFC0
:101210007F000080FFFF000080FFFF000000FFFF55
:1012200000000000F000000000F000000000F000EE
:10123000000000F000000000F000000000F00000DE
:101240000000F000000000F000000000F0000000CE
:1012500000F000000000F000000000F000000000BE
:10126000F000000000F000000000F000000000F0BE
:1012700000000000F000000000F000000000F0009E
:10128000000000F000000000F000000000F000008E
:1012900000FFFF0F0080FFFF1F0080FFFF1F000007
:1012A000FFFF0F0000000000000000000000000031
:1012B000000000000000000000000000000000002E
:1012C000000000000000000000000000000000001E
:1012D00000000000000000000000001D00000000F1
:1012E0000000FF010C0080FF031E0080FF031E00B2
:1012F00080FF031E0080C7031E0080C7031E0080FE
:10130000C7031E0080C7031E0080C7031E0080C7DE
:10131000031E0080C7031E0080C7031E0080C70392
:101320001E0080C7031E0080C7031E0000C3031EEB
:101330000000C0031E0000C0031E0000C0031E000A
:1013400000C0031E0000C0031E0000C0031E0000FA
:10135000C0071E000080070F000080FF0F00000084
:10136000FF0F000000FF07000000FC03000000006A
:10137000000000000000000000000000000000006D
:10138000000000000000000000000000000000005D
:10139000000000000000000000000000000000004D
:1013A00000000000000000000000000000001E001F
:1013B0000000000000FCFF010000FEFF070000FE2F
:1013C000FF0F0000FFFF0F0000CF030F0080C703D7
:1013D0001F0080C7031E0080C7031E0080C7031EB6
:1013E0000080C7031E0080C7031E0080C7031E00C5
:1013F00080C7031E0080C7031E0080C7031E0000B5
:10140000C3031E0000C0031E0000C0031E0000C076
:10141000031E0000C0031E0000C0031E0000C00326
:101420001E0000C0031E0000C0071F000080070F41
:10143000000080FF0F000000FF0F000000FF07000A
:101440000000FC030000000000000000000000009D
:10145000000000000000000000000000000000008C
:10146000000000000000000000000000000000007C
:10147000000000000000000000000000000000006C
:10148000001D0000000000000300000080070000B5
:1014900000800700000080070000008007000000B7
:1014A0008007000000800700000080070000008027
:1014B000070008008007001C008007001F0080074D
:1014C000801F008007C00F008007E003008007F046
:1014D00001008007F8000080077C000080073E00C4
:1014E0000080871F000080C707000080E70300001E
:1014F00080F701000080FF000000807F0000008076
:101500001F000000800F00000080070000000003A3
:1015100000000000000000000000000000000000CB
:1015200000000000000000000000000000000000BB
:1015300000000000000000000000000000000000AB
:10154000000000000000000000000000000000009B
:10155000000000001D000000000000FCF00300007F
:10156000FEFB070000FFFF070000FFFF0F00008FDA
:101570001F0F00800F0F1F0080070F1E0080070F36
:101580001E0080070F1E0080070F1E0080070F1E21
:101590000080070F1E0080070F1E0080070F1E002F
:1015A00080070F1E0080070F1E0080070F1E00809F
:1015B000070F1E0080070F1E0080070F1E00800708
:1015C0000F1E0080070F1E00800F1F1F00008F1FBF
:1015D0000F0000FFFF0F0000FFFF070000FEF907EC
:1015E0000000FCF00300000000000000000000000C
:1015F00000000000000000000000000000000000EB
:1016000000000000000000000000000000000000DA
:1016100000000000000000000000000000000000CA
:10162000000000000000001D000000000000F8079E
:10163000000000FE0F000000FE1F000000FF1F0062
:1016400000000F1E000080073E000080073C0000E5
:1016500080073C000080073C000080073C000080C1
:10166000073C000080073C000080073C000080072A
:101670003C0C0080073C1E0080073C1E0080073C9D
:101680001E0080073C1E0080073C1E0080073C1E99
:101690000080073C1E0080073C1E00800F3C1E009F
:1016A000000F3C0F0000FFFF0F0000FEFF070000CF
:1016B000FEFF070000F8FF0300000000000000002C
:1016C000000000000000000000000000000000001A
:1016D000000000000000000000000000000000000A
:1016E00000000000000000000000000000000000FA
:1016F00000000000000000000000050000000000E5
:1017000000000C0C0000001E1E0000001E1E000049
:10171000000C0C00000000000000000000000000B1
:1017200000000000000000000000000000000000B9
:1017300000000000000000000000000000000000A9
:101740000000000000000000000000000000000099
:101750000000000000000000000000000000000089
:101760000000000000000000000000000000000079
:101770000000000000000000000000000000000069
:101780000000000000000000000000000000000059
:101790000000000000000000000000000000000049
:1017A0000000000000000000000000000000000039
:1017B0000000000000000000000000000000000029
:1017C0000000000000000000000000000007000012
:1017D000000000000000F80000000CFF0000001EE8
:1017E000FF0000001EFF0000001E070000000E00AA
:1017F00000000000000000000000000000000000E9
:1018000000000000000000000000000000000000D8
:1018100000000000000000000000000000000000C8
:1018200000000000000000000000000000000000B8
:1018300000000000000000000000000000000000A8
:101840000000000000000000000000000000000098
:101850000000000000000000000000000000000088
:101860000000000000000000000000000000000078
:101870000000000000000000000000000000000068
:101880000000000000000000000000000000000058
:101890000000000000000000000000000000000048
:1018A000120000000000000006000000000600001A
:1018B00000000F000000000F000000801F0000006B
:1018C00080190000008019000000C039000000C02D
:1018D00030000000E070000000606000000070E078
:1018E00000000070E000000030C000000038C001BF
:1018F00000001880010000188001000000000000B6
:1019000000000000000000000000000000000000D7
:1019100000000000000000000000000000000000C7
:1019200000000000000000000000000000000000B7
:1019300000000000000000000000000000000000A7
:101940000000000000000000000000000000000097
:101950000000000000000000000000000000000087
:101960000000000000000000000000000000000077
:101970000000001000000000000000E700000080F0
:10198000F700000080F700000080F700000080F7FB
:1019900000000080F700000080F700000080F700E2
:1019A000000080F700000080F700000080F70000D2
:1019B0000080F700000080F700000080F7000000C2
:1019C0008073000000000000000000000000000024
:1019D0000000000000000000000000000000000007
:1019E00000000000000000000000000000000000F7
:1019F00000000000000000000000000000000000E7
:101A000000000000000000000000000000000000D6
:101A100000000000000000000000000000000000C6
:101A200000000000000000000000000000000000B6
:101A300000000000000000000000000000000000A6
:101A400000000000000012000000000000188001EB
:101A50000000188001000038C001000030C0000004
:101A60000070E00000007060000000606000000096
:101A7000E070000000C030000000C03900000080AD
:101A8000190000008019000000800F000000000F06
:101A9000000000000F00000000060000000006002B
:101AA0000000000000000000000000000000000036
:101AB0000000000000000000000000000000000026
:101AC0000000000000000000000000000000000016
:101AD0000000000000000000000000000000000006
:101AE00000000000000000000000000000000000F6
:101AF00000000000000000000000000000000000E6
:101B000000000000000000000000000000000000D5
:101B100000000000000000000013000000000000B2
:101B200000000C000000F81E000000FC1E00000079
:101B3000FC1E0000007E0C0000001E000000001EC5
:101B4000000000031E000080071E000080071E002A
:101B50000080071E000080071E0000800F1E00008E
:101B6000000F0F000000FF0F000000FE0F0000003C
:101B7000FE07000000F80300000000000000000065
:101B80000000000000000000000000000000000055
:101B90000000000000000000000000000000000045
:101BA0000000000000000000000000000000000035
:101BB0000000000000000000000000000000000025
:101BC0000000000000000000000000000000000015
:101BD0000000000000000000000000000000000005
:101BE00000000000000000000000000018000000DD
:101BF000000000FFFF000080FFFF010080FFFF03E7
:101C000000C0FFFF0300C001000700C0000F060076
:101C1000C0801F0600C0C01F0600C0C0300600C044
:101C2000D8300600C0D8300600C0D8300600C0D872
:101C3000300000C0D8300000C0F83F0000C0F03FC6
:101C40000000C0E03F0000C000300000C0013000D4
:101C500000C0FF3F000080FF3F000080FF3F00000A
:101C600000FF1F0000000000000000000000000056
:101C70000000000000000000000000000000000064
:101C80000000000000000000000000000000000054
:101C90000000000000000000000000000000000044
:101CA0000000000000000000000000000000000034
:101CB0000000000000000000000000000000001F05
:101CC00000000008000000001C000000001F0000D1
:101CD00000801F000000E007000000F0030000008B
:101CE000FC01000000FE00000080FF000000C0FFBB
:101CF000000000F0F7000000F8F1000000FEF00026
:101D000000003FF00000801FF000008007F000009E
:101D1000800FF00000803FF00000007EF000000027
:101D2000FCF1000000F0F3000000E0FF0000008084
:101D3000FF00000000FF00000000FE00000000F8AF
:101D400003000000F007000000C00F000000801F2B
:101D5000000000001E000000000C00000000000059
:101D60000000000000000000000000000000000073
:101D70000000000000000000000000000000000063
:101D80000000000000000000000000000000000053
:101D900000001D000000000000FFFF0F0080FFFF9B
:101DA0001F0080FFFF1F0080FFFF1F0080070F1E26
:101DB0000080070F1E0080070F1E0080070F1E0007
:101DC00080070F1E0080070F1E0080070F1E008077
:101DD000070F1E0080070F1E0080070F1E008007E0
:101DE0000F1E0080070F1E0080070F1E0080070FC8
:101DF0001E0080070F1E0080070F1E0080070F1EA9
:101E00000080070F1E0080070F1E00008F1F0F00AD
:101E100000FFFF0F0000FFFF0F0000FEFF070000A4
:101E2000F8F00100000000000000000000000000C9
:101E300000000000000000000000000000000000A2
:101E40000000000000000000000000000000000092
:101E50000000000000000000000000000000000082
:101E600000000000001A000000000000FCFF03005A
:101E700000FEFF070000FFFF0F0000FFFF0F0080C4
:101E80000F001F008007001F008007001E00800752
:101E9000001E008007001E008007001E0080070053
:101EA0001E008007001E008007001E008007001E25
:101EB000008007001E008007001E008007001E0033
:101EC0008007001E008007001E008007001E0080A3
:101ED00007001E008007001E008007001E0080070C
:101EE000001E000003000C000000000000000000C5
:101EF00000000000000000000000000000000000E2
:101F000000000000000000000000000000000000D1
:101F100000000000000000000000000000000000C1
:101F200000000000000000000000000000000000B1
:101F300000000000000000001D000000000000FF85
:101F4000FF0F0080FFFF1F0080FFFF1F0080FFFFCB
:101F50001F008007001E008007001E008007001E73
:101F6000008007001E008007001E008007001E0082
:101F70008007001E008007001E008007001E0080F2
:101F800007001E008007001E008007001E0080075B
:101F9000001E008007001E008007001E0080070052
:101FA0001E008007001E008007001E00800F001F1B
:101FB00000800F000F0000FFFF0F0000FFFF070071
:101FC00000FEFF070000FCFF010000000000000011
:101FD0000000000000000000000000000000000001
:101FE00000000000000000000000000000000000F1
:101FF00000000000000000000000000000000000E1
:1020000000000000000000000000001A00000000B6
:102010000000F8FF030000FEFF070000FEFF0F00B6
:1020200000FFFF0F00000F0F0F0080070F1E008042
:10203000070F1E0080070F1E0080070F1E0080077D
:102040000F1E0080070F1E0080070F1E0080070F65
:102050001E0080070F1E0000030F1E0000000F1E51
:102060000000000F1E0000000F1E0000000F1E00E9
:1020700000000F1E0000000F1E0000000F1E0000D9
:10208000000F1E0000000F1E000000060C000000E4
:102090000000000000000000000000000000000040
:1020A0000000000000000000000000000000000030
:1020B0000000000000000000000000000000000020
:1020C0000000000000000000000000000000000010
:1020D00000000000000000000000000000001A00E6
:1020E0000000000000FCFF0F0000FEFF1F0000FECC
:1020F000FF1F0000FFFF0F00000F0F0000800F0FF9
:10210000000080070F000080070F000080070F000D
:102110000080070F000080070F000080070F0000FD
:1021200080070F000000030F000000000F000000F8
:10213000000F000000000F000000000F0000000072
:102140000F000000000F000000000F000000000F53
:10215000000000000F000000000F0000000006005B
:10216000000000000000000000000000000000006F
:10217000000000000000000000000000000000005F
:10218000000000000000000000000000000000004F
:10219000000000000000000000000000000000003F
:1021A000000000000000000000000000000000002F
:1021B000001C000000000000FCFF030000FEFF0701
:1021C0000000FEFF0F0000FFFF0F00000F000F00D8
:1021D000800F001E008007001E008007001E008088
:1021E00007001E008007001E008007001E008007F9
:1021F000001E008007001E000003001E00000000FB
:102200001E000000001E000000001E000000001E56
:10221000000000061E0000000F1E0000000F1E0040
:1022200000000F1F0000000F0F000000FF0F000054
:1022300000FF07000000FF03000000FE0100000097
:10224000000000000000000000000000000000008E
:10225000000000000000000000000000000000007E
:10226000000000000000000000000000000000006E
:10227000000000000000000000000000000000005E
:10228000000000001D000000000000FFFF0F0080A4
:10229000FFFF1F0080FFFF1F0000FFFF0F00000077
:1022A0000F000000000F000000000F000000000FF2
:1022B000000000000F000000000F000000000F00F1
:1022C0000000000F000000000F000000000F0000E1
:1022D00000000F000000000F000000000F000000D1
:1022E000000F000000000F000000000F00000000C1
:1022F0000F000000000F000000000F000000000FA2
:10230000000000FFFF0F0080FFFF1F0080FFFF1F86
:102310000000FFFF0F0000000000000000000000B0
:1023200000000000000000000000000000000000AD
:10233000000000000000000000000000000000009D
:10234000000000000000000000000000000000008D
:102350000000000000000005000000000000FFFF7A
:102360000F0080FFFF1F0080FFFF1F0000FFFF0F17
:10237000000000000000000000000000000000005D
:10238000000000000000000000000000000000004D
:10239000000000000000000000000000000000003D
:1023A000000000000000000000000000000000002D
:1023B000000000000000000000000000000000001D
:1023C000000000000000000000000000000000000D
:1023D00000000000000000000000000000000000FD
:1023E00000000000000000000000000000000000ED
:1023F00000000000000000000000000000000000DD
:1024000000000000000000000000000000000000CC
:1024100000000000000000000000000000000000BC
:10242000000000000000000000000D00000000009F
:102430000000000C000000001E000000001E000054
:1024400000001E000000001E000000001E00000032
:10245000001F000000000F0000FFFF0F0080FFFFC3
:10246000070080FFFF070000FFFF010000000000E1
:10247000000000000000000000000000000000005C
:10248000000000000000000000000000000000004C
:10249000000000000000000000000000000000003C
:1024A000000000000000000000000000000000002C
:1024B000000000000000000000000000000000001C
:1024C000000000000000000000000000000000000C
:1024D00000000000000000000000000000000000FC
:1024E00000000000000000000000000000000000EC
:1024F000000000000000000000000000001A0000C2
:1025000000000000FFFF0F0080FFFF1F0080FFFFA3
:102510001F0000FFFF0F0000000F000000801F00E1
:102520000000C01F000000C03F000000E03D0000B0
:1025300000E079000000F078000000F0F0000000FA
:1025400078F000000078E00100003CE00300003C6F
:10255000C00300001E800700001F800700000F005E
:102560000F00800F000F008007001E008003001E78
:10257000008003001C000001001C00000000080097
:10258000000000000000000000000000000000004B
:10259000000000000000000000000000000000003B
:1025A000000000000000000000000000000000002B
:1025B000000000000000000000000000000000001B
:1025C000000000000000000000000000000000000B
:1025D0001A000000000000FFFF030080FFFF07005B
:1025E00080FFFF0F0000FFFF0F000000000F000042
:1025F00000001F000000001E000000001E00000080
:10260000001E000000001E000000001E0000000070
:102610001E000000001E000000001E000000001E42
:10262000000000001E000000001E000000001E0050
:102630000000001E000000001E000000001E000040
:1026400000001E000000001E000000001E00000030
:10265000000C00000000000000000000000000006E
:10266000000000000000000000000000000000006A
:10267000000000000000000000000000000000005A
:10268000000000000000000000000000000000004A
:10269000000000000000000000000000000000003A
:1026A00000000027000000000000FFFF0F0080FF77
:1026B000FF1F0080FFFF1F0080FFFF0F00003F0093
:1026C0000000007E00000000FC00000000F8010097
:1026D0000000F003000000C00F000000801F000099
:1026E00000003F000000007E00000000FC00000031
:1026F00000F803000000F007000000C00F00000019
:10270000801F000000001F000000001F000000806C
:102710001F000000C00F000000E007000000F003F1
:10272000000000FC010000007E000000003F0000EF
:1027300000801F000000C00F000000E00700000044
:10274000F801000000FC000000007E000000003FD7
:1027500000000080FFFF0F0080FFFF1F0080FFFFD1
:102760001F0000FFFF0F000000000000000000003D
:102770000000000000001D000000000000FFFF0F2F
:102780000080FFFF1F0080FFFF1F0080FFFF0F0082
:10279000001F000000001E000000003E00000000BE
:1027A0007C00000000F800000000F001000000E0E4
:1027B00003000000C003000000C007000000800FFD
:1027C000000000001F000000003E000000003C0070
:1027D0000000007C00000000F800000000F0010094
:1027E0000000E003000000C003000000C00700007C
:1027F00000800F0000FFFF1F0080FFFF1F0080FF11
:10280000FF1F0000FFFF0F0000000000000000009D
:1028100000000000000000000000000000000000B8
:1028200000000000000000000000000000000000A8
:102830000000000000000000000000000000000098
:102840000000000000000000001C0000000000006C
:10285000F8FF010000FEFF070000FEFF070000FF79
:10286000FF0F00000F000F00800F001F0080070007
:102870001E008007001E008007001E008007001E4B
:10288000008007001E008007001E008007001E0059
:102890008007001E008007001E008007001E0080C9
:1028A00007001E008007001E008007001E00800732
:1028B000001E008007001E00800F001F00000F0098
:1028C0000F0000FFFF0F0000FFFF070000FEFF07E3
:1028D0000000FCFF010000000000000000000000FC
:1028E00000000000000000000000000000000000E8
:1028F00000000000000000000000000000000000D8
:1029000000000000000000000000000000000000C7
:102910000000000000000000000000001C0000009B
:10292000000000FFFF0F0080FFFF1F0080FFFF1F60
:102930000080FFFF0F0080073C000080073C000084
:1029400080073C000080073C000080073C000080BE
:10295000073C000080073C000080073C0000800727
:102960003C000080073C000080073C000080073CE2
:10297000000080073C000080073C000080073C000E
:102980000080073C000080073C000080073E0000FC
:10299000000F1E000000FF1F000000FF0F000000DE
:1029A000FE0F000000FC030000000000000000001B
:1029B0000000000000000000000000000000000017
:1029C0000000000000000000000000000000000007
:1029D00000000000000000000000000000000000F7
:1029E0000000000000000000000000000000001DCA
:1029F000000000000000FCFF010000FEFF070000D7
:102A0000FFFF070000FFFF0F00000F000F00800F07
:102A1000001E008007001E008007001E00800700C7
:102A20001E008007001E008007001E008007001E99
:102A3000008007001E008007001E008007001E00A7
:102A40008007001E008007001E008007001E008017
:102A500007001E008007001E008007003E00800760
:102A6000007E00800F007F00800F00FF0000FFFF4E
:102A7000FF0000FFFFE70000FEFF470000FCFF0132
:102A80000000000000000000000000000000000046
:102A90000000000000000000000000000000000036
:102AA0000000000000000000000000000000000026
:102AB0000000000000000000000000000000000016
:102AC00000001C000000000080FFFF0F0080FFFFDF
:102AD0001F0080FFFF1F0080FFFF0F0080071E0008
:102AE0000080073E000080073E000080077E000057
:102AF00080077E000080077E00008007FE000080C7
:102B000007FE00008007FE01008007DE010080074D
:102B1000DE030080079E030080079E030080079E5F
:102B2000070080071E070080071E0F0080071E0E8B
:102B30000080071E1E00000F0F1E0000FF0F1C006C
:102B400000FF0F1C0000FE07080000FC030000004F
:102B50000000000000000000000000000000000075
:102B60000000000000000000000000000000000065
:102B70000000000000000000000000000000000055
:102B80000000000000000000000000000000000045
:102B9000000000000019000000000000FC000C0014
:102BA00000FE011E0000FF031E0000FF071E008044
:102BB000CF071E008087071E008087071E008087C2
:102BC000071E008087071E008087071E008087077A
:102BD0001E008087071E000083071E000080071E5E
:102BE000000080071E000080071E000080071E00F6
:102BF0000080071E0000800F1E0000000F1F000055
:102C000000FF0F000000FE0F000000FE07000000A4
:102C1000F8030000000000000000000000000000B9
:102C200000000000000000000000000000000000A4
:102C30000000000000000000000000000000000094
:102C40000000000000000000000000000000000084
:102C50000000000000000000000000000000000074
:102C60000000000000000000190000000000000348
:102C700000000080070000008007000000800700BF
:102C800000008007000000800700000080070000AF
:102C9000008007000000800700000080070000009F
:102CA00080FFFF0F0080FFFF1F0080FFFF1F0080DD
:102CB000FFFF0F0080070000008007000000800772
:102CC000000000800700000080070000008007006F
:102CD000000080070000008007000000800700005F
:102CE00000000300000000000000000000000000E1
:102CF00000000000000000000000000000000000D4
:102D000000000000000000000000000000000000C3
:102D100000000000000000000000000000000000B3
:102D200000000000000000000000000000000000A3
:102D300000000000000000000000001D0000000076
:102D40000000FFFF030080FFFF070080FFFF0F0070
:102D500000FFFF0F000000800F000000001F0000B8
:102D600000001E000000001E000000001E00000009
:102D7000001E000000001E000000001E00000000F9
:102D80001E000000001E000000001E000000001ECB
:102D9000000000001E000000001E000000001E00D9
:102DA0000000001E000000001E000000001E0000C9
:102DB00000000F000000800F0000FFFF0F0080FFE9
:102DC000FF070080FFFF030000FFFF01000000007D
:102DD00000000000000000000000000000000000F3
:102DE00000000000000000000000000000000000E3
:102DF00000000000000000000000000000000000D3
:102E000000000000000000000000000000002000A2
:102E1000010000008003000000800F000000801F00
:102E2000000000007F00000000FC00000000F8032C
:102E3000000000F007000000C00F000000803F000D
:102E40000000007E00000000FC01000000F0030014
:102E50000000E007000000C01F000000001F00008D
:102E600000001F000000801F000000E00F000000B5
:102E7000F003000000FC010000007E000000803F25
:102E8000000000C01F000000E007000000F8030081
:102E90000000FC000000007F000000801F00000018
:102EA000800F00000080070000000001000000000B
:102EB0000000000000000000000000000000000012
:102EC0000000000000000000000000000000000002
:102ED00000000000000000000000000000000000F2
:102EE000002A00010000008007000000801F000091
:102EF00000807F00000000FF01000000FC0F0000C8
:102F000000E03F00000080FF00000000FE03000022
:102F100000F80F000000E01F000000801F0000000C
:102F2000C01F000000F00F000000FC07000000FFC1
:102F3000010000E07F000000F81F000000FE030019
:102F40000000FF000000803F000000801F00000024
:102F5000807F00000000FE03000000F80F0000006A
:102F6000E03F00000080FF00000000FE03000000C2
:102F7000F80F000000E01F000000801F000000C0EC
:102F80001F000000F00F000000FE03000080FF00A3
:102F90000000E03F000000F80F000000FE0300000A
:102FA00000FF000000803F000000800F00000000D4
:102FB000030000001C00000008000001001C00804D
:102FC00003001E008007001F00800F000F00001F7D
:102FD000800F00003EC00700007CE003000078F096
:102FE000010000F0F8000000F079000000E07F0030
:102FF0000000C03F000000801F000000800F0000A4
:1030000000C01F000000C03F000000E07F00000083
:10301000F0F9000000F8F00100007CE00100003E43
:10302000C00300001E800700000F800F00800F000B
:103030001F008007001E008003001C000001001814
:103040000000000000000000000000000000000080
:103050000000000000000000000000000000000070
:103060000000000000000000000000000000000060
:103070000000000000000000000000000000000050
:10308000000000000000001C000000000000030021
:1030900000008007000000800F000000001F0000FB
:1030A00000003F000000007E00000000FC00000067
:1030B00000F800000000F001000000E00300000044
:1030C000C00700000080FF0F000000FF1F0000008D
:1030D000FF1F000080FF0F0000C007000000E0039A
:1030E000000000F001000000F801000000FC0000FA
:1030F00000007E000000003F000000001F000000F4
:10310000800F000000800700000080030000000026
:1031100001000000000000000000000000000000AE
:10312000000000000000000000000000000000009F
:10313000000000000000000000000000000000008F
:10314000000000000000000000000000000000007F
:10315000000000000000000000001A000000000055
:103160000000000E000000001F000000801F000093
:1031700000801F000000C01F000000E01F000000D2
:10318000F01E000000781E0000037C1E0080073E39
:103190001E0080071E1E0080070F1E008087071E6E
:1031A0000080C7031E0080E7031E0080F7011E0099
:1031B00080FF001E00807F001E00803F001E0080F8
:1031C0003F001E00801F001E00800F001E008007B1
:1031D000001E000003001E000000000C00000000A4
:1031E00000000000000000000000000000000000DF
:1031F00000000000000000000000000000000000CF
:1032000000000000000000000000000000000000BE
:1032100000000000000000000000000000000000AE
:103220000000000000000000000000000009000095
:1032300000000000FFFF0F0080FFFF1F0080FFFF66
:103240001F0080FFFF1F008007001E008007001E78
:10325000008007001E000003000C000000000000BA
:10326000000000000000000000000000000000005E
:10327000000000000000000000000000000000004E
:10328000000000000000000000000000000000003E
:10329000000000000000000000000000000000002E
:1032A000000000000000000000000000000000001E
:1032B000000000000000000000000000000000000E
:1032C00000000000000000000000000000000000FE
:1032D00000000000000000000000000000000000EE
:1032E00000000000000000000000000000000000DE
:1032F00000000000000000000000000000000000CE
:10330000180001000000800300000080070000009A
:10331000800F000000001F000000003E00000000C1
:103320007C00000000F800000000F001000000F048
:1033300003000000E007000000C00F000000801F35
:10334000000000001F000000003E000000007C00A4
:10335000000000F800000000F001000000E00300A1
:103360000000C007000000800F000000001F0000E8
:1033700000001E000000000C000000000000000023
:10338000000000000000000000000000000000003D
:10339000000000000000000000000000000000002D
:1033A000000000000000000000000000000000001D
:1033B000000000000000000000000000000000000D
:1033C00000000000000000000000000000000000FD
:1033D0000000000900000000000003000C0080074E
:1033E000001E008007001E008007001E0080FFFFF7
:1033F0001F0080FFFF1F0080FFFF1F0000FFFF0F67
:1034000000000000000000000000000000000000BC
:1034100000000000000000000000000000000000AC
:10342000000000000000000000000000000000009C
:10343000000000000000000000000000000000008C
:10344000000000000000000000000000000000007C
:10345000000000000000000000000000000000006C
:10346000000000000000000000000000000000005C
:10347000000000000000000000000000000000004C
:10348000000000000000000000000000000000003C
:10349000000000000000000000000000000000002C
:1034A0000000000000000D0000000000000300000C
:1034B000008003000000C001000000E000000000E8
:1034C00070000000003800000000380000000070AC
:1034D00000000000E000000000C0010000008003C8
:1034E00000000000030000000000000000000000D9
:1034F00000000000000000000000000000000000CC
:1035000000000000000000000000000000000000BB
:1035100000000000000000000000000000000000AB
:10352000000000000000000000000000000000009B
:10353000000000000000000000000000000000008B
:10354000000000000000000000000000000000007B
:10355000000000000000000000000000000000006B
:10356000000000000000000000000000000000005B
:103570000000000000000000001B0000000003002D
:1035800000008007000000800700000080070000A6
:103590000080070000008007000000800700000096
:1035A0008007000000800700000080070000008006
:1035B000070000008007000000800700000080076F
:1035C0000000008007000000800700000080070066
:1035D0000000800700000080070000008007000056
:1035E0000080070000008007000000800700000046
:1035F0008007000000800700000080070000000036
:1036000003000000000000000000000000000000B7
:1036100000000000000000000000000000000000AA
:10362000000000000000000000000000000000009A
:10363000000000000000000000000000000000008A
:103640000000000000000000000000000A00000070
:10365000000000000000000000000000300000003A
:10366000007000000000E000000000C00100000049
:1036700080030000000007000000000600000000BA
:10368000000000000000000000000000000000003A
:10369000000000000000000000000000000000002A
:1036A000000000000000000000000000000000001A
:1036B000000000000000000000000000000000000A
:1036C00000000000000000000000000000000000FA
:1036D00000000000000000000000000000000000EA
:1036E00000000000000000000000000000000000DA
:1036F00000000000000000000000000000000000CA
:1037000000000000000000000000000000000000B9
:103710000000000000000000000000000000001B8E
:1037200000000000000000F803000000FC0700009B
:1037300000FE0F000000FE0F0000001F0F00000041
:103740000F1E0000000F1E0000000F1E0000000FE3
:103750001E0000000F1E0000000F1E0000000F1EC4
:103760000000000F1E0000300F1E0000780F1E002A
:1037700000780F1E0000780F1E0000780F1E00005A
:10378000780F1E0000780F1E0000780F1E0000F05A
:103790000F1F0000F0FF0F0000F0FF0F0000E0FF20
:1037A000070000C0FF030000000000000000000050
:1037B0000000000000000000000000000000000009
:1037C00000000000000000000000000000000000F9
:1037D00000000000000000000000000000000000E9
:1037E00000000000000000000000000000000000D9
:1037F000000019000000000000FFFF030080FFFF31
:10380000070080FFFF070000FFFF0F0000F0000F20
:103810000000F0001F0000F0001E0000F0001E007D
:1038200000F0001E0000F0001E0000F0001E00006E
:10383000F0001E0000F0001E0000F0001E0000F06E
:10384000001E0000F0001E0000F0001E0000F0004E
:103850001E0000F0001E0000F0011F0000E0FF0F3E
:103860000000E0FF0F0000C0FF07000080FF030022
:103870000000000000000000000000000000000048
:103880000000000000000000000000000000000038
:103890000000000000000000000000000000000028
:1038A0000000000000000000000000000000000018
:1038B0000000000000000000000000000000000008
:1038C00000000000001A000000000000C0FF03001C
:1038D00000E0FF070000F0FF0F0000F0FF0F000006
:1038E000F8001F000078001E000078001E0000781D
:1038F000001E000078001E000078001E0000780006
:103900001E000078001E000078001E000078001ED7
:10391000000078001E000078001E000078001E00E5
:103920000078001E000078001E000078001E0000D5
:1039300078001E000078001E000078001E0000784D
:10394000001E000030000C0000000000000000001D
:103950000000000000000000000000000000000067
:103960000000000000000000000000000000000057
:103970000000000000000000000000000000000047
:103980000000000000000000000000000000000037
:1039900000000000000000001A000000000000000D
:1039A0000000000080FF030000C0FF070000E0FFF0
:1039B0000F0000E0FF0F0000F0011F0000F0001EEC
:1039C0000000F0001E0000F0001E0000F0001E00CD
:1039D00000F0001E0000F0001E0000F0001E0000BD
:1039E000F0001E0000F0001E0000F0001E0000F0BD
:1039F000001E0000F0001E0000F0001E0000F0009D
:103A00001E0000F0000F0000FFFF0F0080FFFF0707
:103A10000080FFFF070000FFFF0300000000000020
:103A20000000000000000000000000000000000096
:103A30000000000000000000000000000000000086
:103A40000000000000000000000000000000000076
:103A50000000000000000000000000000000000066
:103A6000000000000000000000000018000000003E
:103A70000000C0FF030000E0FF070000F0FF0F00A0
:103A800000F0FF0F0000F0781F000078781E0000A3
:103A900078781E000078781E000078781E00007884
:103AA000781E000078781E000078781E0000787874
:103AB0000C0000787800000078780000007878002A
:103AC00000007878000000F878000000F878000026
:103AD00000F07F000000F07F000000E07F000000A9
:103AE000C07F000000000000000000000000000097
:103AF00000000000000000000000000000000000C6
:103B000000000000000000000000000000000000B5
:103B100000000000000000000000000000000000A5
:103B20000000000000000000000000000000000095
:103B300000000000000000000000000000000C0079
:103B40000000000000FCFF0F0000FEFF1F0000FF50
:103B5000FF1F0000FFFF0F0080F700000080F7004C
:103B6000000080F700000080F700000080F70000F0
:103B70000080F7000000006300000000000000006B
:103B80000000000000000000000000000000000035
:103B90000000000000000000000000000000000025
:103BA0000000000000000000000000000000000015
:103BB0000000000000000000000000000000000005
:103BC00000000000000000000000000000000000F5
:103BD00000000000000000000000000000000000E5
:103BE00000000000000000000000000000000000D5
:103BF00000000000000000000000000000000000C5
:103C000000000000000000000000000000000000B4
:103C1000001900000000000080FF030000C0FF0743
:103C20000000E0FF0F0000E0FF0F0000E0010F00C8
:103C300000F0001E0000F0001E0000F0001E00005A
:103C4000F0001E0000F0001E0000F0001E0000F05A
:103C5000009E0100F000DE0300F000DE0300F00033
:103C6000DE0300F000DE0300F000DE0300F000DE03
:103C70000300E001DE0300E001FE0100E0FFFF01C0
:103C800000C0FFFF0000C0FFFF000080FF7F0000BA
:103C90000000000000000000000000000000000024
:103CA0000000000000000000000000000000000014
:103CB0000000000000000000000000000000000004
:103CC00000000000000000000000000000000000F4
:103CD00000000000000000000000000000000000E4
:103CE000000000001A0000000000000000000000BA
:103CF000FFFF0F0080FFFF1F0080FFFF1F0000FF7E
:103D0000FF0F0000F000000000F000000000F000D5
:103D1000000000F000000000F000000000F00000D3
:103D20000000F000000000F000000000F0000000C3
:103D300000F000000000F000000000F000000000B3
:103D4000F000000000F000000000F000000000F0B3
:103D500001000000E0FF0F0000E0FF1F0000C0FFB7
:103D60001F000080FF0F00000000000000000000A6
:103D70000000000000000000000000000000000043
:103D80000000000000000000000000000000000033
:103D90000000000000000000000000000000000023
:103DA0000000000000000000000000000000000013
:103DB00000000000000000060000000000000300FA
:103DC000000080E7FF0F0080F7FF1F0080F7FF1F54
:103DD0000000E3FF0F0000000000000000000000F2
:103DE00000000000000000000000000000000000D3
:103DF00000000000000000000000000000000000C3
:103E000000000000000000000000000000000000B2
:103E100000000000000000000000000000000000A2
:103E20000000000000000000000000000000000092
:103E30000000000000000000000000000000000082
:103E40000000000000000000000000000000000072
:103E50000000000000000000000000000000000062
:103E60000000000000000000000000000000000052
:103E70000000000000000000000000000000000042
:103E8000000000000000000000000C000000C00066
:103E9000000000E001000000E001000000E001007F
:103EA0000000E001000000E001000000E00100036C
:103EB00000F00180E7FFFF0080F7FFFF0080F7FFC1
:103EC0007F0000E3FF3F0000000000000000000052
:103ED00000000000000000000000000000000000E2
:103EE00000000000000000000000000000000000D2
:103EF00000000000000000000000000000000000C2
:103F000000000000000000000000000000000000B1
:103F100000000000000000000000000000000000A1
:103F20000000000000000000000000000000000091
:103F30000000000000000000000000000000000081
:103F40000000000000000000000000000000000071
:103F5000000000000000000000000000001500004C
:103F600000000000FFFF0F0080FFFF1F0080FFFF29
:103F70001F0000FFFF0F0000007C000000007C001D
:103F8000000000FE00000000FE00000000EF010045
:103F90000000E701000080C703000080C3030000A9
:103FA000C083070000C081070000E0010F0000E0AF
:103FB000000F0000F0001E000070001E00007000E6
:103FC0001C000020000C00000000000000000000A9
:103FD00000000000000000000000000000000000E1
:103FE00000000000000000000000000000000000D1
:103FF00000000000000000000000000000000000C1
:1040000000000000000000000000000000000000B0
:1040100000000000000000000000000000000000A0
:104020000000000000000000000000000000000090
:1040300005000000000000FFFF0F0080FFFF1F00D1
:1040400080FFFF1F0000FFFF0F00000000000000C6
:104050000000000000000000000000000000000060
:104060000000000000000000000000000000000050
:104070000000000000000000000000000000000040
:104080000000000000000000000000000000000030
:104090000000000000000000000000000000000020
:1040A0000000000000000000000000000000000010
:1040B0000000000000000000000000000000000000
:1040C00000000000000000000000000000000000F0
:1040D00000000000000000000000000000000000E0
:1040E00000000000000000000000000000000000D0
:1040F00000000000000000000000000000000000C0
:1041000000000022000000000000C0FF0F0000E0DF
:10411000FF1F0000F0FF1F0000F0FF0F0000F8007D
:104120000000007800000000780000000078000027
:104130000000780000000078000000007800000017
:104140000078000000007800000000780000000007
:10415000F800000000F0FF0F0000F0FF1F0000F06B
:10416000FF1F0000F8FF0F0000F8000000007800BB
:1041700000000078000000007800000000780000D7
:1041800000007800000000780000000078000000C7
:10419000007800000000F800000000F0FF0F0000B1
:1041A000F0FF1F0000E0FF1F0000C0FF0F00000035
:1041B00000000000000000000000000000000000FF
:1041C00000000000000000000000000000000000EF
:1041D00000000000000019000000000000C0FF0FF8
:1041E0000000E0FF1F0000F0FF1F0000F0FF0F00C5
:1041F00000F80000000078000000007800000000D7
:1042000078000000007800000000780000000078CE
:104210000000000078000000007800000000780036
:104220000000007800000000780000000078000026
:10423000000078000000007800000000F800000096
:1042400000F0FF0F0000F0FF1F0000E0FF1F000064
:10425000C0FF0F0000000000000000000000000090
:10426000000000000000000000000000000000004E
:10427000000000000000000000000000000000003E
:10428000000000000000000000000000000000002E
:10429000000000000000000000000000000000001E
:1042A00000000000000000000019000000000000F5
:1042B00080FF030000E0FF070000E0FF0F0000F0B8
:1042C000FF0F0000F0000F0000F8001E0000780053
:1042D0001E000078001E000078001E000078001EFE
:1042E000000078001E000078001E000078001E000C
:1042F0000078001E000078001E000078001E0000FC
:1043000078001E000078001E000078001F0000F8F2
:10431000001F0000F0FF0F0000F0FF0F0000E0FFA3
:10432000070000C0FF0300000000000000000000C4
:10433000000000000000000000000000000000007D
:10434000000000000000000000000000000000006D
:10435000000000000000000000000000000000005D
:10436000000000000000000000000000000000004D
:104370000000000000000000000000001900000024
:10438000000000C0FFFF0100E0FFFF0300F0FFFF9F
:104390000300F0FFFF0100F8001E000078001E007F
:1043A0000078001E000078001E000078001E00004B
:1043B00078001E000078001E000078001E000078C3
:1043C000001E000078001E000078001E000078002B
:1043D0001E000078001E000078001E000078001EFD
:1043E0000000F8001F0000F0FF0F0000F0FF0F00BA
:1043F00000E0FF070000C0FF030000000000000015
:1044000000000000000000000000000000000000AC
:10441000000000000000000000000000000000009C
:10442000000000000000000000000000000000008C
:10443000000000000000000000000000000000007C
:104440000000000000000000000000000000001A52
:10445000000000000000C0FF030000E0FF070000B4
:10446000F0FF0F0000F0FF0F0000F0001F000078C9
:10447000001E000078001E000078001E000078007A
:104480001E000078001E000078001E000078001E4C
:10449000000078001E000078001E000078001E005A
:1044A0000078001E000078001E000078001E00004A
:1044B00078001E000078001E0000F8001E0000F0CA
:1044C000FFFF0300F0FFFF0300E0FFFF0300C0FF5A
:1044D000FF030000000000000000000000000000DA
:1044E00000000000000000000000000000000000CC
:1044F00000000000000000000000000000000000BC
:1045000000000000000000000000000000000000AB
:10451000000000000000000000000000000000009B
:1045200000000C000000000000C0FF0F0000E0FFD2
:104530001F0000F0FF1F0000F0FF0F0000F0000060
:104540000000780000000078000000007800000003
:10455000007800000000780000000030000000003B
:10456000000000000000000000000000000000004B
:10457000000000000000000000000000000000003B
:10458000000000000000000000000000000000002B
:10459000000000000000000000000000000000001B
:1045A000000000000000000000000000000000000B
:1045B00000000000000000000000000000000000FB
:1045C00000000000000000000000000000000000EB
:1045D00000000000000000000000000000000000DB
:1045E00000000000000000000000000000000000CB
:1045F000000000000016000000000000C0070C00D2
:1046000000E00F1E0000F01F1E0000F01F1E000043
:10461000783E1E0000783C1E0000783C1E000078AA
:104620003C1E0000783C1E0000783C1E0000783CD8
:104630001E0000783C1E0000303C1E0000003C1EA6
:104640000000003C1E0000003C1E0000003C1F005B
:104650000000FC1F000000F80F000000F807000039
:1046600000E0030000000000000000000000000067
:10467000000000000000000000000000000000003A
:10468000000000000000000000000000000000002A
:10469000000000000000000000000000000000001A
:1046A000000000000000000000000000000000000A
:1046B00000000000000000000000000000000000FA
:1046C00000000000000000000E006000000000F08C
:1046D00000000000F000000000FFFF0F0080FFFF5F
:1046E0001F0080FFFF1F0000FFFF0F0000F0000011
:1046F0000000F000000000F000000000F0000000EA
:1047000000F000000000F000000000600000000069
:104710000000000000000000000000000000000099
:104720000000000000000000000000000000000089
:104730000000000000000000000000000000000079
:104740000000000000000000000000000000000069
:104750000000000000000000000000000000000059
:104760000000000000000000000000000000000049
:104770000000000000000000000000000000000039
:104780000000000000000000000000000000000029
:1047900000000000000000000000001A00000000FF
:1047A0000000E0FF030000F0FF070000F0FF0F0033
:1047B00000E0FF0F000000000F000000001E0000DE
:1047C00000001E000000001E000000001E0000008F
:1047D000001E000000001E000000001E000000007F
:1047E0001E000000001E000000001E000000001E51
:1047F000000000001E000000001E000000001E005F
:104800000000001E000000000F0000E0FF0F00008D
:10481000F0FF0F0000F0FF070000E0FF03000000C2
:104820000000000000000000000000000000000088
:104830000000000000000000000000000000000078
:104840000000000000000000000000000000000068
:104850000000000000000000000000000000000058
:1048600000000000000000000000000000001D002B
:1048700020000000007000000000F000000000F0C8
:1048800001000000E007000000C00F000000801FD2
:10489000000000003E00000000FC00000000F801E5
:1048A000000000F003000000E007000000800F009F
:1048B0000000001F000000003E000000003F00005C
:1048C00000801F000000C007000000F0030000008F
:1048D000F801000000FC000000007E000000001F46
:1048E000000000C00F000000E007000000F003001F
:1048F0000000F00000000070000000002000000038
:1049000000000000000000000000000000000000A7
:104910000000000000000000000000000000000097
:104920000000000000000000000000000000000087
:104930000000000000000000000000000000000077
:1049400000240000000000006000000000F00100F2
:104950000000F007000000E01F000000807F000062
:104960000000FE01000000F807000000E01F00004A
:1049700000801F000000001F000000C01F0000009A
:10498000F00F000000FC03000000FF000000803F6B
:10499000000000E00F000000F007000000F003003E
:1049A0000000E00F000000C03F000000007F00009A
:1049B0000000FE01000000F807000000E01F0000FA
:1049C00000801F000000801F000000E01F000000AA
:1049D000F80F000000FC03000000FF000000C03FD3
:1049E000000000F00F000000F003000000F00000E5
:1049F0000000200000000000000000000000000097
:104A000000000000000000000000000000000000A6
:104A10000000000019000000000000200008000055
:104A200070001C0000F0001E0000F0010F0000E00C
:104A3000010F0000C08307000080C703000080EF63
:104A400003000000EF01000000FE000000007C00F9
:104A50000000007C000000007C00000000FE000060
:104A60000000FF00000000EF01000080C70300000D
:104A7000C0C3070000E083070000E0010F0000F062
:104A8000001E0000F0001E000070001C000020004E
:104A9000080000000000000000000000000000000E
:104AA0000000000000000000000000000000000006
:104AB00000000000000000000000000000000000F6
:104AC00000000000000000000000000000000000E6
:104AD00000000000000000000000000000000000D6
:104AE000000000000000001A000000000000E0FFCD
:104AF000030000F0FF070000F0FF0F0000E0FF0FD1
:104B0000000000001F000000001E000000001E004A
:104B10000000001E000000001E000000001E00003B
:104B200000001E000000001E000000009E010000AA
:104B300000DE03000000DE03000000DE03000000D2
:104B4000DE03000000DE03000000DE03000000DEE4
:104B500003000000DE0300E0FFFF0100F0FFFF01A3
:104B600000F0FFFF0000E0FF7F00000000000000F9
:104B70000000000000000000000000000000000035
:104B80000000000000000000000000000000000025
:104B90000000000000000000000000000000000015
:104BA0000000000000000000000000000000000005
:104BB00000000000000000000000190000000000DC
:104BC0000000000E000000001E000000001F00009A
:104BD00000801F000000801F000000C01F000000B8
:104BE000C01F000000E01E000060F01E0000F0701A
:104BF0001E0000F0381E0000F03C1E0000F01C1EDD
:104C00000000F01E1E0000F00F1E0000F0071E0046
:104C100000F0071E0000F0031E0000F0011E00005F
:104C2000F0011E0000F0001E0000F0001E000070E9
:104C3000001E000000000C0000000000000000004A
:104C40000000000000000000000000000000000064
:104C50000000000000000000000000000000000054
:104C60000000000000000000000000000000000044
:104C70000000000000000000000000000000000034
:104C8000000000000000000000000000000B000019
:104C900000000000000600000000070000E0FFFF29
:104CA0003F00F0FFFF7F00F8FFFDFF00F83FE0FF4F
:104CB00000780000F000780000F000780000F000BC
:104CC0003000006000000000000000000000000054
:104CD00000000000000000000000000000000000D4
:104CE00000000000000000000000000000000000C4
:104CF00000000000000000000000000000000000B4
:104D000000000000000000000000000000000000A3
:104D10000000000000000000000000000000000093
:104D20000000000000000000000000000000000083
:104D30000000000000000000000000000000000073
:104D40000000000000000000000000000000000063
:104D50000000000000000000000000000000000053
:104D6000050000000000C0FFFFFF01E0FFFFFF03A0
:104D7000E0FFFFFF03C0FFFFFF0100000000000095
:104D80000000000000000000000000000000000023
:104D90000000000000000000000000000000000013
:104DA0000000000000000000000000000000000003
:104DB00000000000000000000000000000000000F3
:104DC00000000000000000000000000000000000E3
:104DD00000000000000000000000000000000000D3
:104DE00000000000000000000000000000000000C3
:104DF00000000000000000000000000000000000B3
:104E000000000000000000000000000000000000A2
:104E10000000000000000000000000000000000092
:104E20000000000000000000000000000000000082
:104E30000000000B000000000030000000007800BF
:104E4000006000780000F000780000F000F83FE01B
:104E5000FF00F8FFFDFF00F0FFFF7F00E0FFFF3FD6
:104E60000000000700000000060000000000000035
:104E70000000000000000000000000000000000032
:104E80000000000000000000000000000000000022
:104E90000000000000000000000000000000000012
:104EA0000000000000000000000000000000000002
:104EB00000000000000000000000000000000000F2
:104EC00000000000000000000000000000000000E2
:104ED00000000000000000000000000000000000D2
:104EE00000000000000000000000000000000000C2
:104EF00000000000000000000000000000000000B2
:104F00000000000000001C000000000000F0010094
:104F10000000F803000000FC03000000FE01000098
:104F2000001E000000001E000000001E0000000027
:104F30001E000000001E000000001E000000001EF9
:104F4000000000003E00000000FC03000000FC0721
:104F5000000000F807000000C00F000000000F0074
:104F60000000000F000000000F000000000F000014
:104F700000000F000000000F000000000F00000004
:104F8000F00F000000F807000000F803000000F038
:104F90000100000000000000000000000000000010
:104FA0000000000000000000000000000000000001
:104FB00000000000000000000000000000000000F1
:104FC00000000000000000000000000000000000E1
:104FD00000000000000000000011000000000000C0
:104FE00000000000FEFFFF0F00FFFFFF1F00030097
:104FF0000018000300001800030000180003000060
:105000001800030000180003000018000300001837
:10501000000300001800030000180003000018003F
:105020000300001800FFFFFF1F00FEFFFF0F00003E
:105030000000000000000000000000000000000070
:105040000000000000000000000000000000000060
:105050000000000000000000000000000000000050
:105060000000000000000000000000000000000040
:105070000000000000000000000000000000000030
:105080000000000000000000000000000000000020
:105090000000000000000000000000000000000010
:1050A0000000000000000000000000002DE9F14FAA
:1050B000B0B0924604910DF142013A9A2B91994673
:1050C0004A7000200AE01AF8011B0498309A9047B1
:1050D0000028049000F06B860D98401C0D909AF803
:1050E000000050B12528EED100210022079108923E
:1050F00009910A920B910C9204E00D9800F059BEB0
:1051000041F001011AF8010F2028F9D023280CD012
:105110002B2804D02D2805D0302809D00BE041F0F1
:105120000201EFE741F00401ECE741F00801E9E793
:1051300041F01001E6E72A280FD1D9F8002052F8F3
:10514000040BC9F8002000280F9003D540420F90AF
:1051500041F004010AF1010A14E00F92DFF8583C13
:105160000AE00F98984205DA00EB800402EB440253
:10517000303A0F920AF1010A9AF80020A2F13000A9
:105180000A28EED39AF800002E2803D04FF0FF3201
:105190000E9229E01AF8010F2A2809D1D9F8000047
:1051A00050F8042BC9F800000E920AF1010A1BE026
:1051B0002D280CBF0AF1010A002000220E92DFF810
:1051C000F84B0BE040B90E9AA24205DA02EB8205D9
:1051D00003EB4503303B0E930AF1010A9AF80030C5
:1051E000A3F130020A2AEDD3ADF840100FF6CC300F
:1051F0009AF8001000F006FF08B11AF8010B8DF8BC
:1052000042009DF84200682805D19AF800006828FD
:105210000CD1622106E06C2804BF9AF800006C28CB
:1052200004D171218DF842100AF1010A12A80690EA
:105230001AF801BBBBF125012CD01C3900F0D78135
:10524000091F022940F2D381133900F0E2840939A1
:1052500000F0CD81891E00F07785491E00F024857D
:10526000491E022940F2C381091F00F01D85491F14
:1052700000F03281491E00F0CC84491E00F0D88035
:10528000C91E0DD0891E00F0C484C91E00F0C1845F
:1052900000F065BD25238DF84830012100F06ABD7E
:1052A000D9F8000050F8044BC9F80000002C059410
:1052B00040F0AB802B994878002800F0A1804FF097
:1052C000FF340FF6003000F0ADFE201A40F06F857D
:1052D00000F051BD01236A4602A9304600F042FEAB
:1052E000002840F064856D1EF4D13096079D12AF02
:1052F00075B1309E17F8012B02A9304600F022FE4E
:10530000002801D46D1EF5D10028309640F04F855D
:105310000A9D3020002D8DF800000CDD309E012309
:105320006A4602A9304600F01DFE002840F03F8585
:105330006D1EF4D13096059F089D75B1309E17F80B
:10534000012B02A9304600F0FDFD002801D46D1E9E
:10535000F5D10028309640F02A850B9D3020002D95
:105360008DF800000CDD309E01236A4602A930460C
:1053700000F0F8FD002840F01A856D1EF4D130963B
:1053800005980899099D471875B1309E17F8012BAB
:1053900002A9304600F0D6FD002801D46D1EF5D1DB
:1053A0000028309640F003850C9D3020002D8DF8AC
:1053B00000000CDD309E01236A4602A9304600F051
:1053C000D1FD002840F0F3846D1EF4D130969DF895
:1053D000400041077FF583AE2020002C8DF80000AF
:1053E0007FF77DAE309D01236A4602A9284600F072
:1053F000B9FD002840F0DB84641EF4D130956EE6E0
:105400000FF6C030059000F0B6BC0E9D002D04D5FF
:10541000204600F027FE044607E02A46204600F01A
:105420002BFE002814BF041B2C46089400F0A3BCDC
:10543000D9F8001051F8040BC9F8001020F000044E
:10544000002121F0FF3512ABCDE902450593DDE9DE
:10545000022306993C2413B90AB90E98A8B102F0A8
:105460000F053035641EEEB23A2E08DA120942EA10
:1054700003721B090D5508BF002A02D105E027352C
:10548000F4E705980D19A842E9D308190590C4F16D
:105490003C020E98089282420ADABDF84010821A45
:1054A0004FF6EF7001400A92ADF8401000F063BC77
:1054B000002840F160849DF8400000F0140010289E
:1054C00040F059840F9B07990A985B1A1B1A9A1A85
:1054D000002A40F350849AE32B99487820B14FF08A
:1054E000FF340FF6B020EEE69DF84200622860D04F
:1054F000682817D06A283FD06C2806D0712847D07A
:1055000074282CD07A281DD062E0D9F8001051F808
:10551000040BC9F80010002866D14FF0FF340FF6D5
:105520008C20D0E6D9F8001051F8040BC9F800100F
:1055300020B94FF0FF340FF67420C4E60D990180B6
:1055400000F019BCD9F8001051F8040BC9F800108C
:10555000002849D14FF0FF340FF65020B3E6D9F8B8
:10556000001051F8040BC9F8001000283CD14FF08E
:10557000FF340FF63820A6E6D9F8001051F8040BD6
:10558000C9F8001080B94FF0FF340FF620209AE6DA
:10559000D9F8001051F8040BC9F8001020B94FF0E9
:1055A000FF340FF608208EE60D9AD317C0E90023CA
:1055B000E1E3D9F8001051F8040BC9F8001020B944
:1055C0004FF0FF340FF6E4107DE60D990170D2E341
:1055D000D9F8001051F8040BC9F8001020B94FF0A9
:1055E000FF340FF6C8106EE60D990160C3E3D9F8D9
:1055F0000020D21D22F00702C9F80020D2E90001E4
:105600000832C9F80020CDE90201C80F02D007987E
:105610002D210AE0BDF84000810702D507982B2113
:1056200003E0C00705D50798202112AA1154401C99
:10563000079012A80799DDE9024543184BF02000B6
:105640006128059321AE0BD00E98002802D50620C4
:105650000E9005E001BF4BF02000672801210E915C
:10566000DDE9020148004015401C0A460DD109033E
:105670000BD0ABF1610703201A2F089002D20FF66E
:1056800048110DE00FF644110AE070B912030CD175
:10569000ABF1610703201A2F08901CD30FF63411C9
:1056A0000322184600F014FD65E3DDE902016A46B5
:1056B00000F062FDCDE902014BF02000612811D11C
:1056C000059830210170821CBBF1610F05920CBF5F
:1056D0007821582102E00FF6F801E1E741700798C0
:1056E000801C0790DDE9020120F0000231F0004348
:1056F00008BF002A02D10025002445E14BF0200814
:10570000B8F1610F40F095800E98002847BF212125
:105710000191401C0190019F7F1C204629460022D8
:105720000023DDE9024500F05FFD00998DF884203B
:1057300038BF85F00045091F002F00910DF185004D
:1057400034DD0646204629460022002300F066FD8F
:105750002BD21C2200F07CFD04460D4600F016FE04
:10576000FF1F002F804609DD00F02CFE02460B468D
:105770002046294600F0EEFE04460D46F01D0721A6
:10578000B8F1000F0CDD491E5EBF08F00F0200F8F3
:10579000012D4FEA2818F3D502E0002200F8012D70
:1057A000491EFAD5C61D002FCCDC30460DF185010F
:1057B000401A019905468842C8BF0D46002D0DF1DB
:1057C00085062FD4854206DA0DF18500415D082952
:1057D000A8BF0F2000DA0020294621AA0A4400E0D1
:1057E0006D1E12F80139491E8342F9D00F2804D1E9
:1057F0000DF18500425C521C4254002904D50098EA
:10580000001D21AE6D1C0090681E0BD431180A7863
:105810003032D3B23A2BA4BF5A443A3A401E01F870
:105820000129F4D50E98002840F1AD80691E0E9133
:10583000A9E00099DFF8FC2647F29750414391FB1D
:10584000F2F2009225F00045C2F10702002A04DDC1
:105850002046294600F04AFB0BE052420020DFF8C8
:10586000D81600F043FB02460B462046294600F0BE
:10587000E3FE0446B8F1660F0E9806BF009F0A3794
:1058800006273F18142FC8BF142730208DF8840036
:105890000D460DF1850000E03046002F35DD06464F
:1058A0002046294600F0ECFF01460A4606F10803AF
:1058B00004200A26B2FBF6F606EB860EA2EB4E0299
:1058C000303203F8012C0A22B6FBF2F202EB820E10
:1058D000A6EB4E063036401E03F8026DE9D1083FB4
:1058E000002F03F10806D7DD084600F0DBFF024673
:1058F0000B462046294600F02DFE0022DFF83C36FC
:1059000000F0DEFF04460D46CAE70DF18501401A9E
:105910000DF1850604E00099491E401E0091761C99
:1059200031783029F7D0B8F1660F02D10099491CBF
:1059300004E0B8F1650F0CBF012100210E9D4D1947
:10594000A842B8BF451E002D1DD4854204DA705D03
:105950003428C8BF392000DC30202946721E531875
:1059600000E06D1E13F80149491E8442F9D0392820
:1059700002D1705C401C7054002904D50098401C72
:1059800016466D1C0090009C01F070F8406A077884
:10599000DDF8388028B2002802DC01250FF23866D5
:1059A0004BF02000662808BF641C16D0672846D13B
:1059B00020B210F1040F48DB404546DA9DF8400064
:1059C000641C010703D428B24045D8BF804620B2EA
:1059D000B8EB000848BF4FF000080FFA84FBBBF19A
:1059E000000F00F3B5800898411C089130220599FA
:1059F0000A54B8F1000F03DC9DF84000010704D5FC
:105A00000898411C089105990F5418EB0B0FB8BF6B
:105A1000C8F1000424B260420B90A0442AB2904521
:105A2000B8BF4546059B08982DB209952A463146D0
:105A3000184400F04DFBA8EB05000C90D2E0BBF140
:105A4000610F17D14FF0700B19E028B2404504DA0E
:105A50009DF840100A0758BF8046B8F1010848BFBA
:105A60004FF00008BBF1670F14BF4FF0450B4FF02C
:105A7000650B04E0BBF1410F08BF4FF0500B0898D5
:105A8000411C0891B8F1000F059916F8012B0A5432
:105A900003DC9DF8400001071AD50898411C0891C5
:105AA000B8F1000F05990F5412DD6D1E28B2804524
:105AB0000598089BB8BF45462AB23146184400F005
:105AC00007FB08992DB269180891A8EB05000B9007
:105AD00005980899084421B2002980F800B003D441
